{
  "contractName": "Authentication",
  "abi": [
    {
      "constant": false,
      "inputs": [],
      "name": "kill",
      "outputs": [],
      "payable": false,
      "stateMutability": "nonpayable",
      "type": "function"
    },
    {
      "constant": true,
      "inputs": [],
      "name": "owner",
      "outputs": [
        {
          "name": "",
          "type": "address"
        }
      ],
      "payable": false,
      "stateMutability": "view",
      "type": "function"
    },
    {
      "constant": true,
      "inputs": [
        {
          "name": "",
          "type": "address"
        }
      ],
      "name": "users",
      "outputs": [
        {
          "name": "name",
          "type": "bytes32"
        },
        {
          "name": "nbRatings",
          "type": "uint256"
        },
        {
          "name": "rating",
          "type": "uint256"
        }
      ],
      "payable": false,
      "stateMutability": "view",
      "type": "function"
    },
    {
      "constant": false,
      "inputs": [
        {
          "name": "newOwner",
          "type": "address"
        }
      ],
      "name": "transferOwnership",
      "outputs": [],
      "payable": false,
      "stateMutability": "nonpayable",
      "type": "function"
    },
    {
      "constant": true,
      "inputs": [],
      "name": "login",
      "outputs": [
        {
          "name": "",
          "type": "bytes32"
        }
      ],
      "payable": false,
      "stateMutability": "view",
      "type": "function"
    },
    {
      "constant": false,
      "inputs": [
        {
          "name": "name",
          "type": "bytes32"
        }
      ],
      "name": "signup",
      "outputs": [
        {
          "name": "",
          "type": "bytes32"
        }
      ],
      "payable": true,
      "stateMutability": "payable",
      "type": "function"
    },
    {
      "constant": false,
      "inputs": [
        {
          "name": "name",
          "type": "bytes32"
        }
      ],
      "name": "update",
      "outputs": [
        {
          "name": "",
          "type": "bytes32"
        }
      ],
      "payable": true,
      "stateMutability": "payable",
      "type": "function"
    }
  ],
  "bytecode": "0x6060604052336000806101000a81548173ffffffffffffffffffffffffffffffffffffffff021916908373ffffffffffffffffffffffffffffffffffffffff16021790555061075c806100536000396000f300606060405260043610610083576000357c0100000000000000000000000000000000000000000000000000000000900463ffffffff16806341c0e1b5146100885780635c1397de1461009d5780638b147245146100d55780638da5cb5b1461010d578063a87430ba14610162578063b34e97e8146101c5578063f2fde38b146101f6575b600080fd5b341561009357600080fd5b61009b61022f565b005b6100b76004808035600019169060200190919050506102c0565b60405180826000191660001916815260200191505060405180910390f35b6100ef60048080356000191690602001909190505061040d565b60405180826000191660001916815260200191505060405180910390f35b341561011857600080fd5b61012061056f565b604051808273ffffffffffffffffffffffffffffffffffffffff1673ffffffffffffffffffffffffffffffffffffffff16815260200191505060405180910390f35b341561016d57600080fd5b610199600480803573ffffffffffffffffffffffffffffffffffffffff16906020019091905050610594565b604051808460001916600019168152602001838152602001828152602001935050505060405180910390f35b34156101d057600080fd5b6101d86105be565b60405180826000191660001916815260200191505060405180910390f35b341561020157600080fd5b61022d600480803573ffffffffffffffffffffffffffffffffffffffff16906020019091905050610660565b005b6000809054906101000a900473ffffffffffffffffffffffffffffffffffffffff1673ffffffffffffffffffffffffffffffffffffffff163373ffffffffffffffffffffffffffffffffffffffff1614156102be576000809054906101000a900473ffffffffffffffffffffffffffffffffffffffff1673ffffffffffffffffffffffffffffffffffffffff16ff5b565b60008160006001028160001916141515156102da57600080fd5b6000600102600160003373ffffffffffffffffffffffffffffffffffffffff1673ffffffffffffffffffffffffffffffffffffffff168152602001908152602001600020600001546000191614156103c15782600160003373ffffffffffffffffffffffffffffffffffffffff1673ffffffffffffffffffffffffffffffffffffffff1681526020019081526020016000206000018160001916905550600160003373ffffffffffffffffffffffffffffffffffffffff1673ffffffffffffffffffffffffffffffffffffffff168152602001908152602001600020600001549150610407565b600160003373ffffffffffffffffffffffffffffffffffffffff1673ffffffffffffffffffffffffffffffffffffffff1681526020019081526020016000206000015491505b50919050565b600081600060010281600019161415151561042757600080fd5b6000600102600160003373ffffffffffffffffffffffffffffffffffffffff1673ffffffffffffffffffffffffffffffffffffffff16815260200190815260200160002060000154600019161415151561048057600080fd5b6000600102600160003373ffffffffffffffffffffffffffffffffffffffff1673ffffffffffffffffffffffffffffffffffffffff16815260200190815260200160002060000154600019161415156105685782600160003373ffffffffffffffffffffffffffffffffffffffff1673ffffffffffffffffffffffffffffffffffffffff1681526020019081526020016000206000018160001916905550600160003373ffffffffffffffffffffffffffffffffffffffff1673ffffffffffffffffffffffffffffffffffffffff168152602001908152602001600020600001549150610569565b5b50919050565b6000809054906101000a900473ffffffffffffffffffffffffffffffffffffffff1681565b60016020528060005260406000206000915090508060000154908060010154908060020154905083565b600080600102600160003373ffffffffffffffffffffffffffffffffffffffff1673ffffffffffffffffffffffffffffffffffffffff16815260200190815260200160002060000154600019161415151561061857600080fd5b600160003373ffffffffffffffffffffffffffffffffffffffff1673ffffffffffffffffffffffffffffffffffffffff16815260200190815260200160002060000154905090565b6000809054906101000a900473ffffffffffffffffffffffffffffffffffffffff1673ffffffffffffffffffffffffffffffffffffffff163373ffffffffffffffffffffffffffffffffffffffff16141561072d57600073ffffffffffffffffffffffffffffffffffffffff168173ffffffffffffffffffffffffffffffffffffffff1614151561072c57806000806101000a81548173ffffffffffffffffffffffffffffffffffffffff021916908373ffffffffffffffffffffffffffffffffffffffff1602179055505b5b505600a165627a7a723058209b67502bf5e4a9aa40e1bab99914f635c45cf0616e73bbda578b20606762a4910029",
  "source": "pragma solidity ^0.4.17;\n\nimport './zeppelin/lifecycle/Killable.sol';\nimport './SharedStructs.sol';\n\ncontract Authentication is Killable {\n  mapping (address => SharedStructs.User) public users;\n\n  uint private id; // Stores user id temporarily\n\n  modifier onlyExistingUser {\n    // Check if user exists or terminate\n\n    require(!(users[msg.sender].name == 0x0));\n    _;\n  }\n\n  modifier onlyValidName(bytes32 name) {\n    // Only valid names allowed\n\n    require(!(name == 0x0));\n    _;\n  }\n\n  function login() constant\n  public\n  onlyExistingUser\n  returns (bytes32) {\n    return (users[msg.sender].name);\n  }\n\n  function signup(bytes32 name)\n  public\n  payable\n  onlyValidName(name)\n  returns (bytes32) {\n    // Check if user exists.\n    // If yes, return user name.\n    // If no, check if name was sent.\n    // If yes, create and return user.\n\n    if (users[msg.sender].name == 0x0)\n    {\n        users[msg.sender].name = name;\n\n        return (users[msg.sender].name);\n    }\n\n    return (users[msg.sender].name);\n  }\n\n  function update(bytes32 name)\n  public\n  payable\n  onlyValidName(name)\n  onlyExistingUser\n  returns (bytes32) {\n    // Update user name.\n\n    if (users[msg.sender].name != 0x0)\n    {\n        users[msg.sender].name = name;\n\n        return (users[msg.sender].name);\n    }\n  }\n}\n",
  "sourcePath": "/home/dario/Documents/Blockchain/StartHack/contracts/Authentication.sol",
  "compiler": {
    "name": "solc",
    "version": "0.4.19+commit.c4cbbb05.Emscripten.clang"
  },
  "schemaVersion": "1.0.1",
  "updatedAt": "2018-02-24T23:08:36.500Z"
}