{
  "contractName": "Loan",
  "abi": [
    {
      "constant": true,
      "inputs": [
        {
          "name": "",
          "type": "bytes32"
        }
      ],
      "name": "cars",
      "outputs": [
        {
          "name": "startTime",
          "type": "uint256"
        },
        {
          "name": "endTime",
          "type": "uint256"
        },
        {
          "name": "price",
          "type": "uint256"
        },
        {
          "name": "plateNumber",
          "type": "bytes32"
        },
        {
          "name": "owner",
          "type": "address"
        }
      ],
      "payable": false,
      "stateMutability": "view",
      "type": "function"
    },
    {
      "constant": true,
      "inputs": [
        {
          "name": "",
          "type": "address"
        },
        {
          "name": "",
          "type": "uint256"
        }
      ],
      "name": "ownedPlates",
      "outputs": [
        {
          "name": "",
          "type": "bytes32"
        }
      ],
      "payable": false,
      "stateMutability": "view",
      "type": "function"
    },
    {
      "inputs": [],
      "payable": false,
      "stateMutability": "nonpayable",
      "type": "constructor"
    },
    {
      "constant": false,
      "inputs": [
        {
          "name": "plateNumber",
          "type": "bytes32"
        }
      ],
      "name": "addCar",
      "outputs": [
        {
          "name": "",
          "type": "bool"
        }
      ],
      "payable": true,
      "stateMutability": "payable",
      "type": "function"
    },
    {
      "constant": true,
      "inputs": [],
      "name": "getPlates",
      "outputs": [
        {
          "name": "",
          "type": "bytes32[]"
        }
      ],
      "payable": false,
      "stateMutability": "view",
      "type": "function"
    }
  ],
  "bytecode": "0x6060604052341561000f57600080fd5b60006002819055506104aa806100266000396000f300606060405260043610610062576000357c0100000000000000000000000000000000000000000000000000000000900463ffffffff1680632f4e81c6146100675780635866b381146100f2578063a73a57a714610126578063ca7585e314610190575b600080fd5b341561007257600080fd5b61008c6004808035600019169060200190919050506101ee565b6040518086815260200185815260200184815260200183600019166000191681526020018273ffffffffffffffffffffffffffffffffffffffff1673ffffffffffffffffffffffffffffffffffffffff1681526020019550505050505060405180910390f35b61010c600480803560001916906020019091905050610244565b604051808215151515815260200191505060405180910390f35b341561013157600080fd5b610139610349565b6040518080602001828103825283818151815260200191508051906020019060200280838360005b8381101561017c578082015181840152602081019050610161565b505050509050019250505060405180910390f35b341561019b57600080fd5b6101d0600480803573ffffffffffffffffffffffffffffffffffffffff169060200190919080359060200190919050506103e8565b60405180826000191660001916815260200191505060405180910390f35b60006020528060005260406000206000915090508060000154908060010154908060020154908060030154908060040160009054906101000a900473ffffffffffffffffffffffffffffffffffffffff16905085565b6000816000808460001916600019168152602001908152602001600020600301816000191690555033600080846000191660001916815260200190815260200160002060040160006101000a81548173ffffffffffffffffffffffffffffffffffffffff021916908373ffffffffffffffffffffffffffffffffffffffff160217905550600160003373ffffffffffffffffffffffffffffffffffffffff1673ffffffffffffffffffffffffffffffffffffffff16815260200190815260200160002080548060010182816103199190610419565b91600052602060002090016000849091909150906000191690555060016002540160028190555060019050919050565b610351610445565b600160003373ffffffffffffffffffffffffffffffffffffffff1673ffffffffffffffffffffffffffffffffffffffff1681526020019081526020016000208054806020026020016040519081016040528092919081815260200182805480156103de57602002820191906000526020600020905b815460001916815260200190600101908083116103c6575b5050505050905090565b60016020528160005260406000208181548110151561040357fe5b9060005260206000209001600091509150505481565b8154818355818115116104405781836000526020600020918201910161043f9190610459565b5b505050565b602060405190810160405280600081525090565b61047b91905b8082111561047757600081600090555060010161045f565b5090565b905600a165627a7a7230582086d57bfc5c42b25dc3a966d7cc3d2106ce34d5fa576f00d3d78ca2ee6a5a46630029",
  "source": "pragma solidity ^0.4.17;\n\nimport './SharedStructs.sol';\nimport './Authentication.sol';\n\ncontract Loan {\n\n    mapping (bytes32 => SharedStructs.Car) public cars;\n    mapping (address => bytes32[]) public ownedPlates;\n    uint nbCars;\n\n    function Loan() {\n        nbCars = 0;\n    }\n\n    function addCar(bytes32 plateNumber) public payable returns (bool) {\n        cars[plateNumber].plateNumber = plateNumber;\n        cars[plateNumber].owner = msg.sender;\n        ownedPlates[msg.sender].push(plateNumber);\n        nbCars = nbCars + 1;\n\n        return true;\n    }\n\n    function getPlates() public view returns (bytes32[]) {\n        return ownedPlates[msg.sender];\n    }\n}\n",
  "sourcePath": "/home/dario/Documents/Blockchain/StartHack/contracts/Loan.sol",
  "compiler": {
    "name": "solc",
    "version": "0.4.19+commit.c4cbbb05.Emscripten.clang"
  },
  "schemaVersion": "1.0.1",
  "updatedAt": "2018-02-24T23:08:36.501Z"
}